:020000040800F2
:10000000782C0020ED0300085D5900085F590008B6
:10001000875900088B5900088F590008000000001C
:1000200000000000000000000000000093590008DC
:1000300095590008000000009759000899590008D8
:10004000070400080704000807040008CD30000872
:100050000704000807040008D92F0008DB2F000858
:10006000DD2F0008DF2F0008E12F0008070400083B
:100070000704000807040008070400080704000834
:100080000704000807040008070400080704000824
:10009000070400080704000807040008E32F00080D
:1000A0000704000807040008070400080704000804
:1000B000B1490008CF4900080704000807040008F8
:1000C00007040008070400080704000807040008E4
:1000D000070400086D510008070400080704000821
:1000E000FD2F000807040008AB59000807040008AA
:1000F00007040008070400080704000800000000C7
:1001000007040008000000000704000807040008B6
:100110000704000807040008070400080704000893
:100120000704000807040008070400080704000883
:100130000704000800000000000000000704000899
:10014000070400080704000807040008A159000874
:10015000DFF80CD00BF01AFE00480047E15700080A
:10016000782C002000200021944A126842F480324A
:10017000924B1A6000BF401C904A126802F4003192
:1001800019B94FF6FF729042F5D18C4A126802F409
:1001900000320AB900BFFEE7894A126822F007025E
:1001A000D21C874B1A60854A5268844B5A601A46A3
:1001B00052685A601A46526842F480625A601A467F
:1001C0005268804B1A407D4B5A601A4652687E4BEB
:1001D0001A437A4B5A601A46D26A7C4B1A40774BC4
:1001E000DA621A46D26A7A4B1A43744BDA621A46BA
:1001F000126842F080621A6000BF704A126802F012
:100200000062002AF9D06D4A126842F080726B4B8E
:100210001A6000BF694A126802F00072002AF9D021
:10022000664A526822F00302644B5A601A465268CA
:1002300042F002025A6000BF604A526802F00802AF
:10024000002AF9D0704710B5FFF78CFF10BD10B52C
:100250006048006840F470005E49086057480068D4
:1002600040F001005549086000204860C862084617
:10027000006859490840514908604FF47F00886080
:100280000846006820F480200860FFF7DCFF0021AA
:100290004FF0006000F045FC10BD2DE9F043DFF8A1
:1002A0001C81D8F80480C8F3810CBCF1000F06D083
:1002B000BCF1010F0AD0BCF1020F75D10DE0DFF8DF
:1002C0001C81DFF81C91C9F8008074E0DFF80C8114
:1002D000DFF80C91C9F800806DE0DFF8E080D8F815
:1002E000048008F48033B3F5803F34D1DFF8CC804C
:1002F000D8F82C8008F080440CB9384800E0394820
:10030000DFF8B880D8F82C8008F48035B5F5803F48
:1003100016D1DFF8A880D8F82C80C8F3031808F1AC
:100320000107DFF89880D8F82C80C8F3032808F17B
:100330000202112A00D11422B0FBF7F808FB02F0E8
:10034000DFF87880D8F82C8008F00F0808F1010653
:10035000B0FBF6F000E02448DFF86080D8F80480B5
:10036000C8F38341DFF85480D8F8048008F00058BF
:10037000B8F1000F01D041F010010F2901D2891C02
:1003800000E0491C00FB01F8DFF85490C9F8008038
:100390000F2907D100EB40084FEA480808EB500846
:1003A000C9F8008007E0FFE7DFF83080DFF8309021
:1003B000C9F8008000BF00BFBDE8F0830010024014
:1003C00000200240FFFFC3DF0000352000F0FEBF29
:1003D0001908010088ED00E0FFFFF6EA00127A003C
:1003E00000000020006CDC0200093D000648804748
:1003F00006480047FEE7FEE7FEE7FEE7FEE7FEE70A
:10040000FEE7FEE7FEE7FEE74F02000851010008A5
:1004100010B500F0E1FD00F0E6FD10BD0B2809DB92
:100420002A2807DCA0F10B02654B03EB8202A2F83D
:10043000401C09E0012807DB0A2805DC421E604B4E
:1004400003EB8202A2F8041C7047014600200B292E
:1004500009DB2A2907DCA1F10B02594B03EB8202CD
:10046000B2F8400C09E0012907DB0A2905DC4A1E25
:10047000534B03EB8202B2F8040C704751480088DA
:1004800040F080004F49088070474E4800884FF682
:100490007F7108404B49088070474A48008840F403
:1004A0008070484908807047464800884FF6FF61D1
:1004B000084044490880704701460020414A10889E
:1004C0004FF6FF52104008433E4A108070470146E5
:1004D00000203C4A10884BF6FF7210400843394A0E
:1004E0001080704701460020364A1088C0F30E0085
:1004F0000843108070470146324A10884FF68072D8
:10050000104001F07F0210432E4A108070472D48A2
:10051000001D008840F001002A49091D088070472D
:100520002848001D00884FF6FE7108402549091D26
:100530000880704701460020224A121D10884FF69D
:10054000FD72104008431F4A121D108070471D485D
:100550000830008840F004001A49083108807047CC
:100560001848083000884FF6FB71084015490831DB
:100570000880704713480830008800F4807008B184
:10058000012070470020FCE70E480830008840F04A
:1005900001000C490831088070470A48083000887B
:1005A00000F4007008B1012070470020FCE7054806
:1005B0000830008840F00200024908310880704786
:1005C000006000402C6C0040002059490860091D63
:1005D0000860091D0860091D0860091D0860704752
:1005E00010B5534B1B688343514C2360231D1B687C
:1005F0008343241D2360231D1B688343241D236024
:10060000231D1B688343241D236011B101290ED1D2
:1006100005E0474B1B680343454C236008E0444B0F
:100620001B1D1B680343424C241D236000E000BFD8
:1006300000BF22B1012A0FD0022A27D119E03C4B7A
:1006400008331B6803433A4C08342360231D1B689E
:100650008343241D23601AE0354B08331B68834312
:10066000334C08342360231D1B680343241D23607F
:100670000DE02F4B08331B6803432D4C08342360D7
:10068000231D1B680343241D236000E000BF00BF3F
:1006900010BD274909680143254A11607047244964
:1006A000091D09680143224A121D11607047204943
:1006B000096881431E4A116070471D49091D096878
:1006C00081431B4A121D11607047014618481430BF
:1006D0000068084008B1012070470020FCE7144979
:1006E000143108607047014611481430006800EA70
:1006F00001020F48006800EA010312B10BB10120AA
:1007000070470020FCE70A49143108607047084927
:10071000103109680143064A1032116070470449DC
:10072000103109688143024A10321160704700009D
:100730000004014010B50446C749601A8C4220D01D
:1007400006DCC648204450B1B0F5806F34D10FE0CC
:10075000B0F5806F1ED0B0F5006F2DD123E040F2D0
:10076000023000F01DFC40F2023000F027FC24E0D3
:1007700040F2033000F014FC40F2033000F01EFCA5
:100780001BE04FF4417000F00BFC4FF4417000F09F
:1007900015FC12E040F2053000F002FC40F205309A
:1007A00000F00CFC09E040F2063000F0F9FB40F2EA
:1007B000063000F003FC00E000BF00BF10BD10B524
:1007C0004FF4407000F0ECFB4FF4407000F0F6FB8B
:1007D00010BDF0B5044616460025002201F00F05B5
:1007E00001F0100747B1042E05D145F00305E76B72
:1007F0001F43E76300E0354300201EE001278740E8
:100800001F40C7B122684FEA800C0F2707FA0CF788
:10081000BA43870005FA07F73A43282904D101278C
:1008200087401F40676105E0482903D101278740C1
:100830001F4027612260471CB8B20828DED3082079
:1008400022E0012787401F40E7B16268A0F1080756
:100850004FEA870C0F2707FA0CF7BA43A0F10807F5
:10086000BF0005FA07F73A43282904D1012787403A
:100870001F40676105E0482903D1012787401F40D9
:1008800027616260471CB8B21028DAD3F0BD01615D
:100890007047416170470AB1016100E041617047F2
:1008A000C160704702469068084008B10120704757
:1008B0000020FCE70146886880B270470246D06895
:1008C000084008B1012070470020FCE70146C868D5
:1008D00080B27047F0B50A460023002400210025AD
:1008E00000F00046B6F1004F02D15D4EF16901E023
:1008F0005B4E7168C0F3034583B200F44016B6F551
:10090000401F08D121F0E061554E766826F0E06680
:10091000534F7E6012E000F48016B6F5801F06D1BA
:10092000032606FA05F4A14341F0E06106E0460D16
:10093000360103FA06F6B14341F0E06122B1460DFB
:10094000360103FA06F6314300F00046B6F1004FD7
:1009500002D1434EF16101E0414E7160F0BD10B52E
:1009600000228B071C0F0F2303FA04F204290EDA6E
:100970003B4B9B6893433A4CA36023469B688C0790
:10098000240F00FA04F42343354CA3602FE0082918
:100990000EDA334BDB689343314CE3602346DB686C
:1009A0008C07240F00FA04F423432D4CE3601EE06F
:1009B0000C290EDA2A4B1B699343294C23612346E9
:1009C0001B698C07240F00FA04F42343244C236191
:1009D0000DE0234B5B699343214C636123465B69C4
:1009E0008C07240F00FA04F423431D4C636110BDEF
:1009F000024600201A4B186820F07F0040EA0210DF
:100A00000843186070471648006840F08000144999
:100A1000086070471248006820F0800010490860A4
:100A200070474FF480320A4382618161826182693A
:100A3000826970470A4A116A21F0010141EA000205
:100A4000074B1A6270470648006A00F4807008B1CC
:100A5000012070470020FCE70010014000F8FEBFB5
:100A60000000014044490143444A116070472DE9A8
:100A7000F04103460D46164600240027A0463F4895
:100A8000006800F4E060B0F5A06F15D006DCB0F5AA
:100A9000407F18D0B0F5806F19D110E0B0F5C06F6D
:100AA00006D0B0F5E06F12D100274FF0040815E032
:100AB00001274FF0030811E00227B8460EE0032794
:100AC0004FF001080AE004274FF0000806E04FF459
:100AD000A060FFF7C7FF0227B84600BF00BFC7F1FD
:100AE000040005FA00F4C8F104010F20C8403040AA
:100AF000044324012248C45403F01F01012088400C
:100B00005911890001F1E021C1F80001BDE8F0812F
:100B100000F01F02012191401A4A431142F82310AC
:100B20007047194A0A400243144B1B1F1A60704752
:100B30001249091D09680143104A121D11607047CE
:100B40000E49091D096881430C4A121D1160704746
:100B5000042808D14FF0E021096941F004014FF069
:100B6000E022116107E04FF0E021096921F0040162
:100B70004FF0E022116170470000FA050CED00E033
:100B800000E400E080E100E080FFFF1F10B540F2CC
:100B90001C4000F005FA40F21C4000F00FFA10BDB6
:100BA0006B49096821F01001694A11601146096812
:100BB00021F0E001116011460968014311601146FE
:100BC000096841F01001116070476149096821F41A
:100BD00040415F4A11601146096801431160704746
:100BE0005B48006820F01000594908607047594977
:100BF000096821F00401574A116008B930BF00E0CC
:100C000020BF7047524A126822F00302504B1A600C
:100C10001A46126802431A604E4A126842F00402F1
:100C20004C4B1A604FF0E02212694B4B1A604B4A52
:100C300012685A60494A121D12689A60474A08327F
:100C40001268DA604FF0E0221269454B1A404FF00B
:100C5000E0231A61434A414B80331A606FF4E0622B
:100C60001B1D1A60D2124FF0E023C3F8882109B986
:100C700030BF02E040BF20BF20BF374A12684FF0AC
:100C8000E0231A61344A5268344B1A60324A92683F
:100C90004FF0E023C3F804212F4AD268C3F808219B
:100CA0002C4A126822F004022A4B1A607047294924
:100CB000096841F00401274A11602549096841F09B
:100CC0000201234A11601146096841F004011160D4
:100CD00008B930BF00E020BF70471D48406840F4AD
:100CE00080701B49486070471948406820F4807044
:100CF0001749486070471648006840F480701449EE
:100D0000086070471248006820F48070104908603D
:100D1000704710B101280ED106E00D49096841F075
:100D200004010B4A116007E00949096841F0080114
:100D3000074A116000E000BF00BF70470146044849
:100D40004068084008B1012070470020FCE700001F
:100D50000070004010ED00E00C05002000E100E014
:100D6000040001003DF87FFF0146F84A02EB9110B4
:100D7000006801F01F0301229A40104008B10120D1
:100D800070470020FCE7F0B5064600240027002548
:100D90001C2E6ED007DCB6B3102E10D0182E67D0E4
:100DA0001A2E67D176E0B6F5006F19D0B6F5106F40
:100DB0004CD0A6F5405010380028F2D134E004E0C1
:100DC0001120FFF7D1FF0546641C1DB94FF6FF70D7
:100DD0008442F5D11120FFF7C7FF00B101277AE067
:100DE00005E040F60100FFF7BFFF0546641C1DB992
:100DF0006FF07C408442F4D140F60100FFF7B4FF6D
:100E000000B1012767E0FFE704E00120FFF7ACFF36
:100E10000546641C15B9B4F5A06FF6D10120FFF7A3
:100E2000A3FF00B1012756E005E043F21100FFF7F0
:100E30009BFF0546641C15B9C5488442F5D143F2B1
:100E40001100FFF791FF00B1012744E005E040F6F3
:100E50000110FFF789FF0546641C15B9BC488442A0
:100E6000F5D140F60110FFF77FFF00B1012732E016
:100E700006E01FE02EE01920FFF776FF0546641C10
:100E800015B9B3488442F6D11920FFF76DFF00B1C0
:100E9000012720E004E01B20FFF766FF0546641CE5
:100EA00015B9AB488442F6D11B20FFF75DFF00B1B6
:100EB000012710E004E01D20FFF756FF0546641CE3
:100EC00015B9A3488442F6D11D20FFF74DFF00B1AC
:100ED000012700E000BF00BF3846F0BD00B59B48C9
:100EE000006840F00100994908600020FFF74BFFBF
:100EF0009648406897490840944948600846006809
:100F000095490840914908600846006820F480200F
:100F100008600846006820F0A05008604FF47F0089
:100F200088600846C06A8D4908408849C86200BD8B
:100F3000864A02EB9011096800F01F0301229A40D3
:100F40001143824B03EB9012116070477F4A02EB12
:100F50009011096800F01F0301229A4091437B4BD6
:100F600003EB901211607047784A02EB9011096808
:100F700000F01F0301229A401143744B03EB9012BF
:100F800011607047714A02EB9011096800F01F036D
:100F900001229A4091436D4B03EB90121160704710
:100FA0006A4A02EB9011096800F01F0301229A407F
:100FB0001143664B03EB901211607047634A02EBDA
:100FC0009011096800F01F0301229A4091435F4B82
:100FD00003EB9012116070475C48006A40F4803067
:100FE0005A49086270475948006A20F480305749CE
:100FF00008627047554A516821F0030141EA000236
:10100000524B5A6070475148406800F00C007047DE
:101010004E4A516821F0F00141EA00024B4B5A6000
:1010200070474A4A516821F4E06141EA0002474BA7
:101030005A607047454A516821F4605141EA000204
:10104000424B5A607047414A516821F0706141EA51
:1010500000023E4B5A607047024600203B4B5868E6
:101060003F4B184042EA01031843384B5860704721
:1010700001460020354AD06A20F080400843D06203
:10108000704702460020314BD86A364B184042EA7E
:10109000010318432D4BD8627047014600202B4AAC
:1010A000D06A20F0F0000843D06270472749C96A2F
:1010B00021F47061254AD1621146C96A0143D162A7
:1010C00070472249C96A21F47041204AD162114611
:1010D000C96A0143D16270471C4B5968224B1940C1
:1010E0001A4BDA6A22F000520C2820D2DFE800F016
:1010F000060708091F0C1F0D1516171800BF00BFA3
:1011000000BF41EA803113E000BF20F004004FF03F
:10111000805343EA803319430AE000BF00BF00BF99
:1011200020F00C0041EA803142F0005200E000BFA4
:1011300000BF064B5960DA627047044A516821F4D7
:10114000400141EA0002014B5A6070470010024022
:10115000FFFF0F000C000040FFFFF6FE0000F89FAD
:10116000FFFFC2DFF0FFFEFFFF3FFFEFE24A116A21
:1011700021F4407141EA0002DF4B1A627047DE4AF7
:10118000D16A21F4003141EA0002DB4BDA62704798
:10119000D94AD16A21F4802141EA0002D64BDA62B1
:1011A0007047D54AC032116821F0010141EA0002BE
:1011B000D14BC3F8C0207047CF48406A40F08070E0
:1011C000CD49486270470146CB4A02EB9110006856
:1011D00001F01F0301229A40104008B1012070471E
:1011E0000020FCE7C44A02EB9011096800F01F03DD
:1011F00001229A401143C04B03EB901211607047DB
:10120000BD4A02EB9011096800F01F0301229A40C9
:101210001143B94B03EB901211607047B64A02EBD1
:101220009011096800F01F0301229A409143B24BCC
:1012300003EB901211607047AF4A116A21F0180158
:1012400041EA0002AC4B1A627047AB4A02EB9011C4
:10125000096800F01F0301229A401143A64B03EBDB
:10126000901211607047A44A02EB9011096800F0D7
:101270001F0301229A4091439F4B03EB9012116090
:10128000704701461C292ED007DC39B310290FD036
:10129000182926D01A2927D124E0B1F5006F12D0E1
:1012A000B1F5106F1CD0A1F54052103AE2B916E02A
:1012B000914A1068126822F480328F4B1A6040F411
:1012C00080221A6011E08C4A106A126A22F0010230
:1012D000894B1A6240F004021A6206E000BF00BFA8
:1012E00000BF00BF00BF00E000BF00BF7047014665
:1012F0001C292ED007DC39B310290FD0182926D08D
:101300001A2927D124E0B1F5006F12D0B1F5106F82
:101310001CD0A1F54052103AE2B916E0764A1068A6
:10132000126822F48032744B1A6020F480221A6012
:1013300011E0714A106A126A22F001026E4B1A62C1
:1013400020F004021A6206E000BF00BF00BF00BF29
:1013500000BF00E000BF00BF70476748006840F46E
:1013600000206549086070476348006820F4002049
:10137000614908607047604A116821F0F80100F087
:101380001F0241EAC2025C4B1A60704700F0030082
:101390005949486370472DE9F14F8EB000200C90F9
:1013A00056A090E8004CC068CDE905BECDF810A06D
:1013B000079053A0D0F804A00068CDE9020A0FF20C
:1013C000401ADAE9000ACDE9000A4B484068C0F348
:1013D00081000D900D9820B1012804D0022856D12B
:1013E00003E04A4A55E0494A53E04348406800F464
:1013F0008039B9F5803F2FD13F48C06A00F0804066
:101400000B900B9808B9414900E041493A48C06A3D
:1014100000F480300A900A98B0F5803F12D1364827
:10142000C06AC0F30310401C08903348C06AC0F380
:101430000320871C112F00D114270898B1FBF0F06E
:1014400000FB07F12C48C06A00F00F00401C099017
:101450000998B1FBF0F100E02E4927484068C0F33D
:1014600083432548406800F0005008B143F0100362
:101470000F2B01D29B1C00E05B1C01FB03F20F2B26
:1014800004D101EB4100400000EB510201E01F4A92
:1014900000BF00BF18484068C0F3031504A8465DAC
:1014A00022FA06F414484068C0F3022502A8465DFB
:1014B00024FA06FC10484068C0F3C2251DF80560F8
:1014C00024FA06F80E9830B1012806D0022806D07A
:1014D00003280AD106E00C9208E00C9406E0CDF84F
:1014E00030C003E0CDF8308000E000BF00BF0C98B2
:1014F0000FB0BDE8F08F00000010024000000000B7
:1015000000000000010203040607080900127A0027
:10151000006CDC0200093D004848006840F0100003
:101520004649086070474548006820F0100043496C
:101530000860704700B50246FFF7EEFF100C3F4908
:101540001431086090B2091D0860FFF7ECFF00BD80
:1015500000B50246FFF7E0FFC2F303403749091D1B
:10156000086090B2091D0860FFF7DDFF00BD00BFF5
:101570003248006800F020000028F9D070472F485A
:10158000006820F008002D49086000BF2B48006863
:1015900000F008000028F9D0704700B50246FFF7B8
:1015A000BBFF100C25491C31086090B2091D086072
:1015B000FFF7B9FF00BD0020204918310868091F56
:1015C000096840EA0140704700201C490C31096855
:1015D0000907080B1949103109680843704701468B
:1015E00016480068084008B1012070470020FCE759
:1015F000124909688143114A1160704701460F483A
:101600000068084008B1012070470020FCE70B4942
:1016100009688143094A116070470849091F096830
:101620000143064A121F116070470449091F0968E7
:101630008143024A121F11607047000004280040D5
:1016400010B50446F848204470B1B0F5806F14D04E
:10165000B0F5784F1AD14FF44370FFF7A1FC4FF467
:101660004370FFF7ABFC12E040F20E40FFF798FC2E
:1016700040F20E40FFF7A2FC09E040F20F40FFF7F6
:101680008FFC40F20F40FFF799FC00E000BF00BF65
:1016900010BD0021016041608160C16041618161D4
:1016A000704702460020106800F441500B68184350
:1016B0004B6818438B681843CB6818430B69184371
:1016C0004B6918438B6918431060D36923F4006396
:1016D000D3617047016841F04001016070470168C3
:1016E00021F040010160704730B504460020E069F8
:1016F0004FF24705284040F4006008431043184368
:10170000E06130BD2DE9F05F05460E4690469946F2
:101710004FF0020A4FF0000B002400270EB900BF63
:10172000FEE702202862C0484042854202D14FF4C1
:10173000003401E04FF48024BC48C06A204010B35C
:10174000BA48C06AC0F30334052C03D90F2C01D268
:10175000A41C02E00F2C00D11424B448C06AC0F3CA
:101760000310471CB148C06A00F0804028B1B0485F
:10177000B0FBF7F06043470009E0AE48B0FBF7F07C
:101780006043470003E00020FFF705FE0746B9F578
:10179000007F06D1380A00EB80004000B0FBF6F471
:1017A0000FE0B8F1000F06D1780900EB800040008F
:1017B000B0FBF6F405E0B80900EB80004000B0FB98
:1017C000F6F4601D0A21B0FBF1F404F0010BA4EB68
:1017D0000B004FEA500A4FEA0B2BBAF1020F02D36B
:1017E000BAF1FF0F03D94FF0020A4FF0000B4AEA9B
:1017F0000B0040EA09002862E86920F00700E86170
:10180000E86940EA0800E861BDE8F09FC16941F479
:101810008061C1617047C16921F48061C161704715
:10182000416841F0040141607047416821F00401C2
:1018300041607047016841F4807101607047016840
:1018400021F480710160704721B9426842F00202C0
:10185000426003E0426842F001024260704721B9F1
:10186000426822F00202426003E0426822F0010274
:1018700042607047026822F40062026002680A4314
:1018800002607047C16070470146C86880B2704707
:10189000B1F5804F04D1026842F48042026003E057
:1018A000026822F4804202607047026842F40052EB
:1018B0000260016170470146086980B270470168A3
:1018C00041F4005101607047016821F4005101604A
:1018D0007047016841F4805101607047024611B9B8
:1018E000906980B27047506980B2FBE7416841F06F
:1018F000100141607047416821F01001416070475C
:10190000416841F0080141607047416821F00801D9
:1019100041607047D0F8801041F00101C0F880109C
:101920007047D0F8801021F00101C0F88010704796
:10193000D0F8801021F00201C0F880107047D0F874
:10194000801041F00201C0F880107047D0F880107C
:1019500041F00401C0F880107047D0F8801021F0E9
:101960000401C0F88010704721B1012907D0022975
:101970000FD109E0426842F0800242600AE042680A
:1019800042F04002426005E0426842F020024260BC
:1019900000E000BF00BF704721B1012907D0022934
:1019A0000FD109E0426822F0800242600AE04268FA
:1019B00022F04002426005E0426822F020024260CC
:1019C00000E000BF00BF704710B503460C469968A1
:1019D0005A68072C30D2DFE804F004090E13181DF2
:1019E000220001F0020102F0800226E001F0010174
:1019F00002F0400221E001F0400102F020021CE070
:101A000001F0200102F0200217E001F0100102F0C5
:101A1000200212E001F0080102F020020DE001F4C2
:101A2000807102F0200208E000C8FFBF00100240F1
:101A3000006CDC0200127A0000BF00BF11B10AB1D5
:101A4000012010BD0020FCE702469068084008B164
:101A5000012070470020FCE7816821F010018160BF
:101A60007047000010B50446F749601A8C426FD0E9
:101A700019DCF649A4EB01008C424ED009DCB4F12C
:101A8000804F2ED0F2482044A0B3B0F5806F72D1C1
:101A90003AE0B0F5806F49D0B0F5006F4FD0B0F5A7
:101AA000406FF4D17BE0B0F5983F5BD009DCB0F536
:101AB000806F73D0B0F5883F0AD0B0F58C3F5AD113
:101AC00047E0B0F59A3F57D0B0F59C3F53D15CE06A
:101AD00040F20B30FFF764FA40F20B30FFF76EFA7A
:101AE00079E04FF48060FFF75BFA4FF48060FFF716
:101AF00065FA70E0FFE740F20140FFF751FA40F26B
:101B00000140FFF75BFA66E040F20240FFF748FA57
:101B100040F20240FFF752FA5DE040F20340FFF767
:101B20003FFA40F20340FFF749FA54E040F2044024
:101B3000FFF736FA40F20440FFF740FA4BE040F27C
:101B40000540FFF72DFA40F20540FFF737FA42E073
:101B50002EE040F20D30FFF723FA40F20D30FFF790
:101B60002DFA38E040F21330FFF71AFA40F2133042
:101B7000FFF724FA2FE02DE04FF44570FFF710FA3D
:101B80004FF44570FFF71AFA25E040F21530FFF7E1
:101B900007FA40F21530FFF711FA1CE011E040F2AD
:101BA0000640FFF7FDF940F20640FFF707FA12E0A2
:101BB00040F20740FFF7F4F940F20740FFF7FEF963
:101BC00009E04FF48160FFF7EBF94FF48160FFF714
:101BD000F5F900E000BF00BF10BD00210180418089
:101BE00081804FF6FF718160002181818173704790
:101BF0000A888262974A90420FD0B0F1804F0CD091
:101C0000934A5242904208D0934A904205D08F4A5C
:101C1000904202D0914A90420FD1026822F07002A5
:101C2000026002688B7803F060031A430260026866
:101C30000B7903F010031A4302608A68C262884A73
:101C400090420CD0874A904209D0026822F4407238
:101C5000026002688B8903F440731A4302607D4A74
:101C6000904202D07D4A904201D18A7B0263426950
:101C700042F0010242617047016841F001010160D8
:101C80007047016821F0010101607047016841F06F
:101C9000800101607047016821F080010160704798
:101CA000016821F0020101607047016841F0020102
:101CB00001607047026822F06002026002680A4315
:101CC00002607047016821F01001016070470168EF
:101CD00041F01001016070478162012A03D143691C
:101CE00043F001034361704701637047C16270476D
:101CF0004162704701460020486A70470146002053
:101D00008A6A90B27047082904D1026842F008023A
:101D1000026004E019B9026822F00802026070470C
:101D2000042904D1026842F00402026004E019B9F7
:101D3000026822F0040202607047C2680A43C2606F
:101D40007047C2688A43C2607047082904D142685C
:101D500042F00802426004E019B9426822F0080229
:101D60004260704710B5836C41F61F74A3438364CF
:101D7000836C41EA02042343836410BD42690A4331
:101D8000426170470021018041808180C1800181D2
:101D90004181818170470A884B881A438B881A4396
:101DA000CB881A430B891A434B891A438B891A43F0
:101DB00042647047416C41F4805141647047416C0A
:101DC00021F4805141647047416C41F48041416489
:101DD0007047416C21F4804141647047012904D16E
:101DE000426C42F40042426403E0426C22F400423E
:101DF00042647047012904D1426842F00102426006
:101E000003E0426822F001024260704721B9426853
:101E100022F00402426005E0042903D1426842F046
:101E20000402426070470021018041808180C180AE
:101E300001814181704710B5B1B101294FD002290C
:101E40007ED003297DD1CFE0001C0040000C004073
:101E500000FCFFBF002C014000080040003401409E
:101E60000010004000140040036A23F001030362E5
:101E7000036A148823430362036A23F002030362A4
:101E8000036A948823430362F84B984202D0F84BCC
:101E900098421FD1036A23F004030362036A548843
:101EA00023430362036A23F008030362036AD488AE
:101EB00023430362436823F48073436043681489B7
:101EC00023434360436823F40073436043685489A9
:101ED00023434360836923F003038361ABE0036A18
:101EE00023F010030362036A148843EA04130362B5
:101EF000036A23F020030362036A948843EA04130D
:101F00000362DA4B984202D0D94B984226D1036A39
:101F100023F040030362036A548843EA0413036214
:101F2000036A23F080030362036AD48843EA04133C
:101F30000362436823F4806343604368148901E0CB
:101F400011E077E043EA84034360436823F40063CD
:101F500043604368548943EA84034360836923F4FC
:101F60004073836167E0036A23F480730362036A4A
:101F7000148843EA04230362036A23F400730362B0
:101F8000036A948843EA04230362B84B984202D060
:101F9000B74B984223D1036A23F480630362036A38
:101FA000548843EA04230362036A23F40063036250
:101FB000036AD48843EA04230362436823F480530A
:101FC00043604368148943EA04134360436823F47D
:101FD000005343604368548943EA04134360C36970
:101FE00023F00303C36126E0036A23F480530362F2
:101FF000036A148843EA04330362036A23F4005338
:102000000362036A948843EA04330362974B98425D
:1020100002D0974B984208D1436823F48043436031
:102020004368148943EA84134360C36923F440730B
:10203000C36100E000BF00BF10BD31B101290CD069
:10204000022913D0032922D118E0836923F07003F9
:1020500083618369134383611AE0836923F4E04356
:102060008361836943EA0223836111E0C36923F03A
:102070007003C361C3691343C36109E0C36923F4F7
:10208000E043C361C36943EA0223C36100E000BFC8
:1020900000BF704731B1012906D0022906D00329BB
:1020A00008D105E0426306E0826304E0C26302E017
:1020B000026400E000BF00BF704731B101290CD0BD
:1020C000022913D0032922D118E0836923F00803E1
:1020D00083618369134383611AE0836923F4006396
:1020E0008361836943EA0223836111E0C36923F0BA
:1020F0000803C361C3691343C36109E0C36923F4DF
:102100000063C361C36943EA0223C36100E000BF07
:1021100000BF704731B101290CD0022913D0032927
:1021200022D118E0836923F0040383618369134398
:1021300083611AE0836923F480638361836943EADE
:102140000223836111E0C36923F00403C361C369FF
:102150001343C36109E0C36923F48063C361C369A6
:1021600043EA0223C36100E000BF00BF704731B102
:1021700001290CD0022913D0032922D118E0836948
:1021800023F0800383618369134383611AE08369C9
:1021900023F400438361836943EA0223836111E0EE
:1021A000C36923F08003C361C3691343C36109E0BA
:1021B000C36923F40043C361C36943EA0223C361D3
:1021C00000E000BF00BF704731B101290CD00229E7
:1021D00013D0032923D119E0036A23F00203036219
:1021E000036A134303621BE0036A23F020030362C4
:1021F000036A43EA0213036212E0036A23F40073E2
:102200000362036A43EA0223036209E0036A23F4D8
:1022100000530362036A43EA0233036200E000BF33
:1022200000BF704721B101290AD002291AD110E05C
:10223000036A23F008030362036A1343036212E094
:10224000036A23F080030362036A43EA0213036212
:1022500009E0036A23F400630362036A43EA02238A
:10226000036200E000BF00BF70470000002C014087
:102270000034014031B101290CD0022913D00329C7
:1022800023D119E0036A23F001030362036A1343B5
:1022900003621BE0036A23F010030362036A43EA4C
:1022A0000213036212E0036A23F480730362036A79
:1022B00043EA0223036209E0036A23F480530362C2
:1022C000036A43EA0233036200E000BF00BF7047C5
:1022D00021B101290AD002291AD110E0036A23F0A2
:1022E00004030362036A1343036212E0036A23F0E8
:1022F00040030362036A43EA0213036209E0036ACC
:1023000023F480630362036A43EA0223036200E06A
:1023100000BF00BF704700210180012141800021E2
:102320008180C180704731B101290CD0022913D0BE
:10233000032922D118E0836923F00C0383618369A8
:10234000134383611AE0836923F4406383618369E3
:1023500043EA0223836111E0C36923F00C03C361E4
:10236000C3691343C36109E0C36923F44063C361D4
:10237000C36943EA0223C36100E000BF00BF7047A6
:1023800070B504460E46154636B1012E26D0022EF3
:1023900048D0032E7DD168E0206A20F00100206241
:1023A000206A20F00A002062206A298808432062FF
:1023B000A06920F00300A061A06969880843A061BA
:1023C000A06920F0F000A061A069E98840EA01104E
:1023D000A061206A40F0010020626DE0206A20F0D8
:1023E00010002062206A20F0A0002062206A298864
:1023F00040EA01102062A06920F44070A061A06949
:10240000698840EA0120A061A06920F47040A061C1
:10241000A069E98840EA0130A061206A40F010001C
:10242000206249E0206A20F480702062206A20F453
:1024300020602062206A298840EA01202062E06949
:1024400020F00300E061E06969880843E061E06929
:1024500020F0F000E061E069E98840EA0110E06105
:10246000206A40F48070206226E0206A20F48050C8
:102470002062206A20F400502062206A298840EA05
:1024800001302062E06920F44070E061E069698811
:1024900000E010E040EA0120E061E06920F47040D3
:1024A000E061E069E98840EA0130E061206A40F4D7
:1024B0008050206200E000BF00BFAA88314620465D
:1024C000FFF731FF70BD0246002031B1012906D06F
:1024D000022906D0032908D105E0506B06E0906B75
:1024E00004E0D06B02E0106C00E000BF00BF70475A
:1024F0002DE9F04104460E4615460027B8462888C7
:1025000008B9022700E000276888012802D14FF0AF
:10251000020801E04FF00108002E4CD1206A20F0A3
:1025200001002062206A20F00A002062206A2988C7
:1025300008432062A06920F00300A061A0696988B7
:102540000843A061A06920F0F000A061A069E988BB
:1025500040EA0110A061206A40F001002062AA88D0
:1025600000212046FFF7DFFE206A20F010002062E5
:10257000206A20F0A0002062206A40EA0710206252
:10258000A06920F44070A061A06940EA0820A06121
:10259000A06920F47040A061A069E98840EA013098
:1025A000A061206A40F010002062AA880121204624
:1025B000FFF7B9FE4CE0206A20F010002062206A8C
:1025C00020F0A0002062206A298840EA01102062E1
:1025D000A06920F44070A061A069698840EA0120E8
:1025E000A061A06920F47040A061A069E98840EA78
:1025F0000130A061206A40F010002062AA88012109
:102600002046FFF790FE206A20F001002062206A39
:1026100020F00A002062206A38432062A06920F07E
:102620000300A061A06940EA0800A061A06920F051
:10263000F000A061A069E98840EA0110A061206A69
:1026400040F001002062AA8800212046FFF76BFEBF
:10265000BDE8F081802904D1426842F080024260E6
:1026600004E019B9426822F0800242607047826833
:1026700022F07002826082680A438260704742687A
:1026800022F07002426042680A43426070478268EA
:1026900022F00702826082680A43826070478029C4
:1026A00004D1826842F08002826004E019B9826835
:1026B00022F080028260704730B5846824F43F4481
:1026C0008460846841EA02052C438460846844EA9B
:1026D0000324846030BD30B5846824F0070484602E
:1026E00084680C438460846940F20335AC438461A0
:1026F000846940F201152C438461046A24F00A04C1
:102700000462046A24F0A0040462046A42EA031525
:102710002C43046230BD816821F00701816070475D
:1027200010B503460C4621461846FFF7A0FF9868EF
:1027300020F007009860986840F00700986010BD8E
:1027400070B504460E461546602E20D1206A20F052
:1027500010002062206A20F0A0002062206A40EA77
:1027600005102062A06920F44070A061A06940F4C7
:102770008070A061A06920F47040A061A06940EA67
:102780000330A061206A40F0100020621EE0206A41
:1027900020F001002062206A20F00A002062206AF6
:1027A00028432062A06920F00300A061A06940F0E6
:1027B0000100A061A06920F0F000A061A06940EADA
:1027C0000310A061206A40F00100206231462046DB
:1027D000FFF74DFFA06820F00700A060A06840F060
:1027E0000700A06070BDF0B504460D4616461F46B2
:1027F0003B46324629462046FFF75EFFA06820F0A0
:102800007700A060A06840F07700A060F0BDF0B550
:1028100004460D4616461F463B463246294620468C
:10282000FFF74AFFA06840F48040A060F0BD8168D7
:1028300021F4804181607047012906D1D0F8FC2045
:1028400042F00202C0F8FC2006E029B9D0F8FC20D2
:1028500022F00202C0F8FC207047012906D1D0F80E
:10286000FC2042F00102C0F8FC2006E029B9D0F8B3
:10287000FC2022F00102C0F8FC207047C2680A4325
:10288000C2607047C2688A43C26070470246D0681F
:1028900000EA01031069084010B10BB10120704734
:1028A0000020FCE7CA4302617047024610690840F5
:1028B00008B1012070470020FCE7CA43026170475D
:1028C00010B50446F949601A8C4228D006DCF84855
:1028D000204490B1B0F5806F33D117E0B0F5806F30
:1028E00026D0B0F56C4F2CD140F20E30FEF758FBDD
:1028F00040F20E30FEF762FB24E040F21140FEF79A
:102900004FFB40F21140FEF759FB1BE040F2124032
:10291000FEF746FB40F21240FEF750FB12E040F299
:102920001340FEF73DFB40F21340FEF747FB09E082
:1029300040F21440FEF734FB40F21440FEF73EFB39
:1029400000E000BF00BF10BD2DE9F04704460D4672
:102950000027B846B9460026D449601A8C421CD0DC
:1029600006DCD348204470B1B0F5806F1FD10FE072
:10297000B0F5806F16D0B0F56C4F18D10320FEF77C
:102980000AFD074614E00220FEF705FD07460FE0AA
:102990000220FEF700FD07460AE00220FEF7FBFCDE
:1029A000074605E00220FEF7F6FC074600E000BF00
:1029B00000BF07EB5500B0FBF5F64FF6F07006EAE6
:1029C000000806F00F0948EA0900A060BDE8F0879A
:1029D000C26822F4C062C260C2680A43C260704723
:1029E000C26822F48052C260C2680A43C260704763
:1029F000026922F44052026102690A43026170478F
:102A0000C16841F40051C1607047C16821F40051B0
:102A1000C16070470A460021C16821F008011143D6
:102A2000C16070470A460021C16821F004011143CA
:102A3000C16070470A460021D0F8801021F400617F
:102A40001143C0F88010704706292ED2DFE801F04C
:102A500003180A1F1126D0F8802042F48062C0F8C3
:102A6000802023E0D0F8802042F40072C0F880205B
:102A70001CE0D0F8802042F48072C0F8802015E07D
:102A8000D0F8802022F48062C0F880200EE0D0F8D8
:102A9000802022F40072C0F8802007E0D0F8802067
:102AA00022F48072C0F8802000E000BF00BF7047B1
:102AB000D0F8801041F00101C0F880107047D0F8C4
:102AC000801021F00101C0F88010704750F8842F69
:102AD00002F07F42026002680A4340F8842970478E
:102AE000C1F308024260704701464868C0F308001D
:102AF0007047026922F00F020261026901F00F03C0
:102B00001A4302617047C16841F00201C160704719
:102B1000C16821F00201C1607047C26822F40062FE
:102B2000C260C2680A43C2607047016941F48041D3
:102B300001617047016921F48041016170470269B8
:102B400022F020020261026901F020031A430261AF
:102B50007047C16841F00101C1607047416941F0AF
:102B6000080141617047416921F0080141617047E6
:102B7000016941F4006101617047016921F400615C
:102B80000161704770B50C460021016921F4E061D4
:102B900004F4807502F40076354303F4806635430F
:102BA0002943016170BD826922F47F42826182699A
:102BB0004FF47F4303EA01231A438261704741695E
:102BC00041F0200141617047416921F020014161DC
:102BD0007047416941F0100141617047416921F03E
:102BE00010014161704750F8802F22F00E02026000
:102BF00002680E2303EA41031A4340F88029704714
:102C000050F8842F22F07F42026002684FF07F4329
:102C100003EA01631A4340F884297047416941F08F
:102C2000020141617047416921F002014161704731
:102C3000826922F0FF02826182690A4382617047E1
:102C4000426922F004024261426901F004031A431E
:102C5000426170470A460021416921F480711143A5
:102C6000416170470A460021416921F40071114316
:102C7000416170470A460021416921F0400111433A
:102C8000416170470A460021416921F080011143EA
:102C90004161704750F8C02F22F0010202600268C3
:102CA00001F001031A4340F8C0297047004C00406E
:102CB00000BCFFBF10B5024602EB9110006801F0A6
:102CC0001F040123A340184008B1012010BD0020BB
:102CD000FCE710B500EB9112126801F01F0401230C
:102CE000A3409A4300EB91131A6010BD10B500EB9E
:102CF0009112126801F01F040123A3401A4300EB54
:102D000091131A6010BD10B500EB9112126801F01A
:102D10001F040123A3409A4300EB91131A6010BDD6
:102D200070B5024600230024C1F38910105801F049
:102D30001F060125B54000EA050302EB915000682B
:102D4000C1F304460125B54000EA050414B10BB1F6
:102D5000012070BD0020FCE710B500EB9152126815
:102D6000C1F304440123A3409A4300EB91531A603A
:102D700010BD00002DE9F0412C4801F0AFFD2CA161
:102D80002EA001F0ABFD33A134A001F0A7FD39A1C5
:102D90003BA001F0A3FD404801F0A0FD3F480468BE
:102DA000001D0568001D06683D4800683D49B0FBF0
:102DB000F1F739463CA001F091FD23462A46314601
:102DC00044A001F08BFD48A001F088FD00231A46C5
:102DD000012146A001F082FD54A001F07FFD55A025
:102DE00001F07CFD59A001F079FD62A001F076FDB3
:102DF00069A001F073FDBDE8F08110B501F0ADFEF2
:102E000000F007F901F077FDFFF7B4FF00F0D0FE06
:102E100002F099F800F046FC02F060F902F00CFABA
:102E200004F0C0FC10BD70477047704704BF010834
:102E3000536D617274205065740000002A204E6149
:102E40006D65202020203A202020202025730D0AA7
:102E50000000000056312E31000000002A20566587
:102E60007273696F6E203A202020202025730D0A8E
:102E700000000000D5E2B4CED2BBB6A8B6D30000A5
:102E80002A20417574686F7220203A20202020206B
:102E900025730D0A00000000C0BE0108E8F7FF1FFF
:102EA0000000002040420F000D0A435055203A20F8
:102EB0004744333245313033524254362C204C5142
:102EC000465036342C20D6F7C6B53A2025644D48F6
:102ED0007A0D0A00554944203D20253038582025D8
:102EE00030385820253038580A0D00002A20B9CC37
:102EF000BCFEBFE2B0E6B1BE203A205625642E25C6
:102F0000642E2564202847443332453130782066CA
:102F100069726D77617265206C6962726172792085
:102F200076657273696F6E20290D0A002A200D0ADA
:102F3000000000002A205151202020203A20313565
:102F4000333037353035200D0A0000002A20456D1A
:102F500061696C203A2032303139313231393038C0
:102F600037406E756973742E6564752E636E200D1F
:102F70000A0000002A20C4CFBEA9D0C5CFA2B9A4A0
:102F8000B3CCB4F3D1A720CEDECEFDD1D0BEBFC925
:102F9000FAD4BA200D0A00002A2A2A2A2A2A2A2A22
:102FA0002A2A2A2A2A2A2A2A2A2A2A2A2A2A2A2A81
:102FB0002A2A2A2A2A2A2A2A2A2A2A2A2A2A2A2A71
:102FC0002A2A2A2A2A2A2A2A2A2A2A2A2A2A2A2A61
:102FD0002A2A2A2A2A0A0D0070477047704770472C
:102FE000704710B52020FDF77EFB30B1202134481A
:102FF000FDF758FC2020FDF786FB10BD10B54FF4FF
:103000008040FDF770FB18B14FF48040FDF77BFB6B
:1030100010BD10B540F20260FDF78AFF40F2036078
:10302000FDF786FF40F20460FDF782FF40F2056085
:10303000FDF77EFF4FF4C060FDF77AFF4FF4807319
:10304000032210211F48FDF7C4FB4FF40053032255
:1030500010211B48FDF7BDFB0423032218211A4849
:10306000FDF7B7FB0823032210211548FDF7B1FB3C
:103070000223032210211448FDF7ABFB0423032293
:1030800010210F48FDF7A5FB08210D48FDF701FCB5
:1030900002210D48FDF7FBFB04210948FDF7F7FB72
:1030A0004FF480710748FDF7F4FB40F2DC5001F06B
:1030B000BAFD4FF480710348FDF7E9FB10BD000035
:1030C00000100140000C01400008014010B5012033
:1030D000FEF794FA28B10120FEF799FA0120FC4985
:1030E000087010BD10B540F21B70FDF721FF40F2D3
:1030F0001C70FDF71DFFFDF7FEFDFDF789F910209F
:10310000FEF79AF84FF40060FEF79FF84FF4006066
:10311000FDF739FE4FF48070FEF728F840F60F00F7
:10312000FDF706FFFEF72BFAFEF721FA0120FEF766
:1031300074FAFEF71CFA47F6FF70FEF709FAFEF77D
:1031400016FA4FF4A060FDF78DFC00220121032048
:10315000FDF78DFC10BD2DE9F04F93B0054600241E
:103160000027A0460026A146A246A34600201290B2
:1031700011903022D74905A808F0AEFB40F29F70AD
:1031800000EB556625F07E45D348B5FBF0F706F019
:10319000030028B96420B6FBF0F100FB116030B9E0
:1031A0004FF4C870B6FBF0F100FB116008B91D20A8
:1031B00000E01C20069000240BE005A850F8240035
:1031C000B84204D805A850F824003F1A00E002E0F5
:1031D000641C0C2CF1D300BF0C2C01D30C2000E09C
:1031E000601C814607F1010ABB48B5FBF0F100FB0A
:1031F00011584FF46160B8FBF0FBB8FBF0F100FB35
:1032000011803C21B0FBF1F012904FF46160B8FBEB
:10321000F0F100FB11803C21B0FBF1F201FB120048
:10322000119001204FF6FF714FF478421023CDE941
:103230000032CDE9021004233246014602F037FF86
:1032400001201021A5A24FF6FF73CDE900210290C5
:103250004FF478420146212003F01CF901204FF67B
:10326000FF714FF478421023CDE90032CDE902100E
:1032700002234A460146252002F019FF01201021B1
:1032800096A24FF6FF73CDE9002102904FF47842E9
:103290000146352003F0FEF801204FF6FF714FF490
:1032A00078421023CDE90032CDE9021002235246C4
:1032B0000146392002F0FBFE01204FF6FF714FF46A
:1032C00078421023CDE90032CDE9021002235A469C
:1032D0001021184602F0EBFE0120102180A24FF6CB
:1032E000FF73CDE9002102904FF478420F211120A5
:1032F00003F0D0F801204FF6FF714FF4784210230D
:10330000CDE90032CDE90210022310211820129AD3
:1033100002F0CDFE0120102171A24FF6FF73CDE91E
:10332000002102904FF478420F21282003F0B2F8D8
:1033300001204FF6FF714FF478421023CDE900329F
:10334000CDE90210022310212F20119A02F0AFFEC6
:1033500013B0BDE8F08F2DE9F0418CB004460D4666
:103360009046002730225B496039684608F0B4FA7D
:103370000DB10C2D03D900200CB0BDE8F08104F094
:10338000030028B96420B4FBF0F100FB114030B910
:103390004FF4C870B4FBF0F100FB114008B91D20D8
:1033A00000E01C200190002603E05DF826000744A1
:1033B000761C681EB042F8D847443846DCE72DE951
:1033C000F04186B005464FF0000800240026002793
:1033D000002005903F4B30330FCBCDE90323CDE9DF
:1033E000010100BF1EE000BF05213E48FFF762FC5F
:1033F0000028F9D03B48FFF777FB05A9085505A839
:10340000005D302803DB05A8005D392801DD4FF0A1
:10341000010842F20F70854203D0012C01D1641CD7
:1034200002E0641C042CDED300BFB8F1010F06D10A
:103430002D4801F053FAFF2006B0BDE8F0810026C8
:103440000AE005A8805D3038A11B491E01AA52F888
:10345000211000FB0177761CA642F2D3AF4205D9BA
:10346000294622A001F03AFAFF20E5E73846E3E7D3
:103470002DE9F04F8FB000BF4FF0000BFF24FF2667
:10348000FF25FF27A046A14630221249303903A864
:1034900008F022FA214801F021FA40F6020240F237
:1034A0009F711FA001F01AFA53E042F20F70FFF76C
:1034B00086FF044640F29F70844203D340F6020028
:1034C000844246D9FF2440F6020240F29F713DE05B
:1034D00004000020B8C80008805101002E00000040
:1034E0003A0000000050004048BF01080A0D506C2F
:1034F0006561736520656E7465722076616C6964C0
:10350000206E756D626572206265747765656E20E8
:103510003020616E642025640A0000008CBF010821
:103520000D0A506C6561736520536574205965619F
:103530007273202876616C69642072616E67653AE7
:103540002025642D2564293A000000007BA001F0AD
:10355000C5F9FF2CA9D004F0030028B96420B4FBFE
:10356000F0F100FB114030B94FF4C870B4FBF0F13A
:1035700000FB114008B91D2000E01C2004902146EA
:103580007AA001F0ABF97BA001F0A8F908E00C20CB
:10359000FFF715FF06461EB9FF2681A001F09EF930
:1035A000FF2EF4D0314671A001F098F988A001F007
:1035B00095F90FE01F20FFF702FF0546701E03A9D3
:1035C00051F820B00DB15D4504D9FF2559468AA0B8
:1035D00001F084F9FF2DEDD0294664A001F07EF9B9
:1035E00091A001F07BF903E01720FFF7E8FE074602
:1035F000FF2FF9D039465DA001F070F995A001F0D8
:103600006DF903E03B20FFF7DAFE8046B8F1FF0FCB
:10361000F8D0414655A001F061F999A001F05EF99A
:1036200003E03B20FFF7CBFE8146B9F1FF0FF8D056
:1036300049464EA001F052F92B46324621469BA046
:103640008DE8800301F04AF92A4631462046FFF70B
:1036500082FE82464FF461607843C8EB081100EBAC
:10366000810000EB0901AAF1010000EB4000C0005D
:10367000C0EB4012C2EB002001EB0011A4F29F70DE
:1036800001EB40600FB0BDE8F08F10B50024FDF7EE
:103690006EFFFFF7EDFE04462046FDF74BFFFDF7FA
:1036A00066FF10BD10B500240120FCF7CEFE4AF6DF
:1036B000CD3188420FD08DA001F010F9FFF712FD37
:1036C00094A001F00BF9FFF7E0FF4AF6CD3101209D
:1036D000FCF7A4FE2BE040F61B10FDF745FB18B1EC
:1036E00095A001F0FBF807E040F61C10FDF73CFB4D
:1036F00010B19AA001F0F2F840F21C70FDF718FC2E
:10370000FDF7F9FA9DA008F00DFCFDF738FFFDF775
:103710002EFF0120FDF781FFFDF729FF4FF4A06088
:10372000FDF7A0F9002201210320FDF7A0F9FDF724
:1037300042FF04462046FFF70EFD10BD0A0D506CF7
:103740006561736520656E7465722076616C69646D
:10375000206E756D626572206265747765656E2096
:10376000256420616E642025640A00002020256401
:10377000000000000D0A506C65617365205365748C
:10378000204D6F6E746873202876616C69642072B6
:10379000616E67653A2030312D3132293A000000E0
:1037A0000A0D506C6561736520656E7465722076D4
:1037B000616C6964206E756D6265722062657477F4
:1037C00065656E203120616E642031320A00000090
:1037D0000D0A506C656173652053657420446179EE
:1037E00073202876616C69642072616E67653A2087
:1037F00030312D3331293A000A0D506C6561736503
:1038000020656E7465722076616C6964206E756DDA
:10381000626572206265747765656E203120616E25
:10382000642025640A0000000D0A506C6561736510
:103830002053657420486F757273202876616C6917
:10384000642072616E67653A2030302D3233293A38
:10385000000000000D0A506C6561736520536574AB
:10386000204D696E75746573202876616C696420DB
:1038700072616E67653A2030302D3539293A000083
:103880000D0A506C65617365205365742053656340
:103890006F6E6473202876616C69642072616E6754
:1038A000653A2030302D3539293A00000D0A205470
:1038B000696D652069732073657420737563636532
:1038C000737366756C6C79206173203A2025642EC1
:1038D000252E32642E252E32642020252E32643A85
:1038E000252E32643A252E32640000000D0A205243
:1038F000544320686173206E6F74206265656E208A
:10390000636F6E66696775726564207965742E2EC3
:103910002E2E00000D0A2073746172742074686585
:103920002052544320636F6E6669677572617469D3
:103930006F6E2E2E2E2E00000D0A20506F776572AE
:10394000204F6E2F446F776E205265736574206F21
:10395000636375727265642E2E2E2E000D0A0A2086
:1039600045787465726E616C205265736574206F62
:10397000636375727265642E2E2E2E000D0A204E22
:103980006F206E65656420746F20636F6E66696773
:10399000757265205254432E2E2E2E0010B504460B
:1039A0001021FE48FCF775FF4021FC48FCF771FF31
:1039B000204600F041FF1021F848FCF768FF10BDD9
:1039C00010B504461021F548FCF763FF4021F34889
:1039D000FCF75DFF204600F02FFF1021EF48FCF7B9
:1039E00056FF10BD70B505460C462846FFF7D6FFBA
:1039F000E0B2FFF7E5FF70BD10B5E949087AFFF7BF
:103A0000CDFF10BD10B5044672B61021E348FCF797
:103A100040FF4021E148FCF73AFF201200F00CFF84
:103A2000E0B200F009FF1021DC48FCF730FF62B67D
:103A300010BD2DE9F04104460D4616461F46D849F3
:103A4000887AFFF7ABFF2012FFF7BAFFE0B2FFF76B
:103A5000B7FF3012FFF7B4FFF0B2FFF7B1FFD04964
:103A6000087BFFF79BFF2812FFF7AAFFE8B2FFF7DA
:103A7000A7FF3812FFF7A4FFF8B2FFF7A1FFFFF787
:103A8000BBFFBDE8F08170B504460D462B462246CB
:103A900029462046FFF7CDFF70BD70B504460D46A0
:103AA00029462046FFF7EFFFBE480088FFF7AAFF30
:103AB00070BD70B50446BA484088401E83B2B8480D
:103AC0000088401E82B200210846FFF7B2FF102195
:103AD000B248FCF7DEFE4021B048FCF7D8FE0025D6
:103AE0000DE0002606E0201200F0A6FEE0B200F095
:103AF000A3FE761CAA480088B042F4D86D1CA848E2
:103B00004088A842EDD81021A448FCF7C0FE70BD43
:103B100010B51021A448FCF7BCFE142001F083F876
:103B20001021A148FCF7B3FE142001F07CF810BD71
:103B300010B504462A209A4948812B2088812C20E0
:103B4000088134B1012C0FD0022C18D0032C2CD1B9
:103B500020E0F020924908804FF4A07048800021B6
:103B60003620FFF73FFF21E04FF4A0708C4908801A
:103B7000F020488060213620FFF734FF16E0F02067
:103B8000874908804FF4A0704880C0213620FFF795
:103B900029FF0BE04FF4A07081490880F020488095
:103BA000A0213620FFF71EFF00E000BF00BF10BDC0
:103BB00010B500F056FE1023032219467748FCF793
:103BC00008FE4023032210217448FCF702FE102354
:103BD000032219467448FCF7FCFD08230322102138
:103BE0006E48FCF7F6FD08216C48FCF750FE00F02B
:103BF00040FEFFF78DFF3620FFF7D0FE0020FFF7D5
:103C0000DFFE3A20FFF7CAFE0520FFF7D9FEB220FB
:103C1000FFF7C4FE0C20FFF7D3FE0C20FFF7D0FE09
:103C20000020FFF7CDFE3320FFF7CAFE3320FFF759
:103C3000C7FEB720FFF7B2FE3520FFF7C1FEBB205D
:103C4000FFF7ACFE1920FFF7BBFEC020FFF7A6FE72
:103C50002C20FFF7B5FEC220FFF7A0FE0120FFF7E2
:103C6000AFFEC320FFF79AFE1220FFF7A9FEC42083
:103C7000FFF794FE2020FFF7A3FEC620FFF78EFE7D
:103C80000F20FFF79DFED020FFF788FEA420FFF74E
:103C900097FEA120FFF794FEE020FFF77FFED020E3
:103CA000FFF78EFE0420FFF78BFE0D20FFF788FE46
:103CB0001120FFF785FE1320FFF782FE2B20FFF770
:103CC0007FFE3F20FFF77CFE5420FFF779FE4C205B
:103CD000FFF776FE1820FFF773FE0D20FFF770FE4A
:103CE0000B20FFF76DFE1F20FFF76AFE2320FFF772
:103CF00067FEE120FFF752FED020FFF761FE0420AF
:103D0000FFF75EFE0C20FFF75BFE1120FFF758FE69
:103D10001320FFF755FE2C20FFF752FE3F20FFF740
:103D20004FFE4420FFF74CFE5120FFF749FE2F20A5
:103D3000FFF746FE1F20FFF743FE1F20FFF740FE60
:103D40002020FFF73DFE2320FFF73AFE2120FFF75A
:103D500025FE1120FFF722FE2920FFF71FFE00207D
:103D6000FFF7E6FE4FF6FF70FFF7A3FE10BD3EB56E
:103D700004464FF6FF70FFF79CFE1F200090084896
:103D8000028814230021084601F04EFE1F200090F7
:103D90000348438802884088143807E0000801403F
:103DA0001C050020060000200010014081B2002008
:103DB00001F03AFE4FF6FF70FE4908800120102105
:103DC0001F234FF6FF72CDE900410290022100202F
:103DD00002F0E4FB01201021F7A2CDE900210290BE
:103DE000F9484088123881B21F234FF6FF72002035
:103DF00002F0D4FB3EBD2DE9F04106460F461446C5
:103E00001D464FF6FF70EB4908803B462246394677
:103E1000304601F040FE2B4632463946304601F02E
:103E20003AFE48F21040E34908806A1E93B291B20C
:103E3000721C90B2224601F02EFE44F20820DD49A9
:103E400008802B4622462946304601F024FE48F2DF
:103E50001040D8490880631E9AB27B1C99B2631E39
:103E600098B22B4601F017FE44F20820D149088091
:103E70002B4622463946204601F00DFEBDE8F08172
:103E80000EB54EF67D70FFF714FE1C23A922082103
:103E90004720FFF7B0FF01201021CCA21F23CDE95E
:103EA000002102904FF61F020A21002002F076FB4B
:103EB0003A23A92226214720FFF79DFF0120102148
:103EC000C6A24EF67D73CDE9002102900022282182
:103ED000104602F063FB5823A92244214720FFF734
:103EE0008AFF01201021C1A24EF67D73CDE9002189
:103EF00002901F224621002002F050FB7623A922C7
:103F000062214720FFF777FF01201021BBA24EF668
:103F10007D73CDE9002102904FF478426421102096
:103F200002F03CFB40F2DC5000F07DFE4FF4FA70F2
:103F300000F079FE0EBD0EB5B4A0FFF718FF01200A
:103F40001021B6A21F23CDE900210290DA02172129
:103F5000002002F023FB01201021ACA21F23CDE999
:103F600000210290DA022821002002F017FB012034
:103F70001021ADA21F23CDE9002102904FF4FC6275
:103F80003921002002F00AFB01201021A9A21F23E1
:103F9000CDE9002102904FF4FC624A21002002F09A
:103FA000FDFA01201021A5A21F23CDE900210290D6
:103FB0001A465B21002002F0F1FA40F2DC5000F0DA
:103FC00032FE40F2DC5000F02EFE0EBD0EB54FF674
:103FD000FF7000907C48438802880021084601F069
:103FE00023FD0120102198A24FF6E073CDE90021B6
:103FF00002901F221E21142002F04CFA4FF4487048
:1040000000F011FE4FF4784000906F48438802881A
:104010000021084601F008FD012010218CA24FF676
:10402000E073CDE9002102901F221E21142002F02E
:1040300031FA4FF4487000F0F6FD4FF4FC60009048
:104040006148438802880021084601F0EDFC012008
:10405000102181A24FF6E073CDE9002102901F22CA
:104060001E21142002F016FA4FF4487000F0DBFD18
:104070001F2000905448438802880021084601F020
:10408000D3FC0120102176A24FF6E073CDE9002188
:1040900002904FF478421E21142002F0FBF94FF4F5
:1040A000487000F0C0FD0EBD2DE9F84300246EA05D
:1040B000FFF75DFE4FF6FF700090434840881438CC
:1040C00083B2414802881421002001F0ADFC00BFFA
:1040D0004AE0694830F8140036490880DFF8E8C043
:1040E000BCF8025005EBD57C4FEA6C0CACF1280C07
:1040F00004EB840909EBC409CC440CF11E0C1FFA33
:104100008CF3DFF8C4C0BCF8006006EBD67C4FEA45
:104110006C0CACF1280C0CEB041C0CF11E0C1FFAFF
:104120008CF2DFF8A4C0BCF8027007EBD77C4FEA32
:104130006C0CACF1280C04EB840909EBC409CC44E9
:104140001FFA8CF1DFF880C0BCF8008008EBD87C47
:104150004FEA6C0CACF1280C0CEB041C1FFA8CF031
:1041600001F0F1FC601CC4B2052CB2DB40F2DC5063
:1041700000F059FD4FF6FF70009013484088143846
:1041800083B2114802881421002001F04DFC002464
:10419000B0E0394830F8140006490880DFF828C03C
:1041A000BCF8025005EBD57C4FEA6C0CACF1280C46
:1041B00064E00000060000207777772E6C63647758
:1041C000696B692E636F6D001C050020CDBCD0CEDD
:1041D000CFD4CABEB2E2CAD400000000B4BFC9AB9B
:1041E000CCEEB3E4B2E2CAD400000000D6D0CEC414
:1041F000CFD4CABEB2E2CAD400000000CDBCC6AC67
:10420000CFD4CABEB2E2CAD400000000D7DBBACF16
:10421000B2E2CAD4B3CCD0F200000000C8ABB6AF53
:10422000B5E7D7D300000000322E30222053543798
:104230003738390032343058333230003230313987
:104240002D31322D32310000424C20546573740000
:104250005245442000000000475245454E200000D2
:10426000424C554520000000475549BED8D0CECC21
:10427000EEB3E4B2E2CAD4000C00002004EB8409DF
:1042800009EBC409CC440CF11E0C1FFA8CF3DFF8C7
:104290005CC4BCF8007007EBD77C4FEA6C0CACF147
:1042A000280C0CEB041C0CF11E0C1FFA8CF2DFF82E
:1042B0003CC4BCF8028008EBD87C4FEA6C0CACF133
:1042C000280C04EB840909EBC409CC441FFA8CF1D7
:1042D000DFF818C4BCF8006006EBD67C4FEA6C0C23
:1042E000ACF1280C0CEB041C1FFA8CF001F04BFC19
:1042F000601CC4B2052CFFF64CAF40F2DC5000F05D
:1043000092FCBDE8F883F8B50024F9A0FFF72FFD73
:104310004FF6FF700090F5484088143883B2F34898
:1043200002881421002001F07FFB00BF1DE0002067
:10433000EE4B00905D8805EBD5735B10193B04EBE9
:10434000840707EBC407D919E84B1E8806EBD67320
:104350005B10283BC4EB0417D819E94B33F8142041
:104360000F2301F061FC601CC4B2052CDFDB40F2BE
:10437000DC5000F058FC4FF6FF700090DB4840889E
:10438000143883B2D94802881421002001F04CFB74
:1043900000241DE00120D54B00905D8805EBD5730E
:1043A0005B10193B04EB840707EBC407D919CF4B0B
:1043B0001E8806EBD6735B10283BC4EB0417D81994
:1043C000CF4B33F814200F2301F02EFC601CC4B235
:1043D000052CDFDB40F2DC5000F025FCF8BD0EB50B
:1043E000C8A0FFF7C4FC00200C21CAA24FF6E0735E
:1043F000CDE9002102901F2216210A2002F04AF87E
:1044000001200C21C9A24FF6E073CDE900210290F2
:104410001F2222210A2002F03DF800200C21C9A20F
:104420004FF6E073CDE9002102901F222F210A20D0
:1044300002F030F800201021C8A24FF6E073CDE959
:10444000002102901F223C210A2002F023F80120C3
:104450001021C6A24FF6E073CDE9002102901F2281
:104460004C210A2002F016F800201021C3A24FF6BA
:10447000E073CDE9002102901F225C210A2002F0A6
:1044800009F84FF4966000F0CEFB0EBD2DE9FC5FFD
:104490000024BFA0FFF76BFC4FF6FF70009093481D
:1044A0004088143883B2914802881421002001F01A
:1044B000BBFA00BF60E0924830F81400B8490880A9
:1044C0008A48458805EBD57040100C3804EB440150
:1044D00001EBC401084481B28448068806EBD6701B
:1044E00040100B38C4EB0412104480B2DFF8FCC15A
:1044F000CDE90001BCF8027007EBD77C4FEA6C0CE9
:10450000ACF1270C04EB440B0BEBC40BDC441FFA9F
:104510008CF3DFF8D8C1BCF8008008EBD87C4FEAF8
:104520006C0CACF11A0CC4EB041BDC441FFA8CF2CB
:10453000DFF8B8C1BCF8029009EBD97C4FEA6C0CEB
:10454000ACF10C0C04EB440B0BEBC40BDC441FFA7A
:104550008CF1DFF898C1BCF800A00AEBDA7C4FEAD6
:104560006C0CACF1280CC4EB041BDC441FFA8CF07F
:1045700001F0A7FB601CC4B2052C9CDB40F2DC50B0
:1045800000F051FB4FF6FF700090584840881438F7
:1045900083B2564802881421002001F045FA002415
:1045A00060E0574830F814007D4908804F4845883E
:1045B00005EBD57040100C3804EB440101EBC4014D
:1045C000084481B24948068806EBD67040100B3883
:1045D000C4EB0412104480B2DFF810C1CDE9000131
:1045E000BCF8027007EBD77C4FEA6C0CACF1270CDF
:1045F00004EB440B0BEBC40BDC441FFA8CF3DFF829
:10460000ECC0BCF8008008EBD87C4FEA6C0CACF135
:104610001A0CC4EB041BDC441FFA8CF2DFF8CCC08C
:10462000BCF8029009EBD97C4FEA6C0CACF10C0C95
:1046300004EB440B0BEBC40BDC441FFA8CF1DFF8EA
:10464000ACC0BCF800A00AEBDA7C4FEA6C0CACF111
:10465000280CC4EB041BDC441FFA8CF001F052FB65
:10466000601CC4B2052C9CDB40F2DC5000F0DBFA8D
:10467000BDE8FC9F0EB5AFF28C40FFF778FB002041
:10468000102148A24FF6E073CDE9002102901F22CD
:1046900019210A2001F0FEFE0120182146A24FF642
:1046A000E073CDE9002102901F222D210A2001F0A4
:1046B000F1FE0120202144A24FF6E073CDE9002154
:1046C00002901F2246210A2001F0E4FE4FF496607A
:1046D00000F0A9FA0EBD10B588B000243E4B0FCBF8
:1046E000CDE90623CDE9040100BF96E01C050020BA
:1046F000475549BBADD4B2CCEEB3E4B2E2CAD40064
:104700000C000020D3A2CEC4CFD4CABEB2E2CAD419
:1047100000000000365831323A61626364656667B2
:104720006830313233343536370000003658313294
:104730003A414243444546474830313233343536B6
:1047400037000000365831323A7E21402324255E5E
:10475000262A28295F2B7B7D3A0000003858313605
:104760003A6162636465303132333400385831362F
:104770003A414243444530313233340038583136BF
:104780003A7E21402324255E262A282900000000A5
:1047900047554920547269CCEEB3E4B2E2CAD40062
:1047A0000600002031365831363AC8ABB6AFB5E70F
:1047B000D7D3BBB6D3AD000032345832343AD6D05A
:1047C000CEC4B2E2CAD4000033325833323AD7D61C
:1047D000CCE5B2E2CAD4000078D500082046FFF745
:1047E000A7F911A0FFF7C3FA0121102204A850F87D
:1047F00024004FF6E073CDE9012100901F221E2115
:10480000142001F047FE4FF47A7000F00CFA4FF4D8
:104810007A7000F008FA601CC4B2042CDEDB0020C1
:10482000FFF786F908B010BDC6C1C4BBD0FDD7AA3A
:10483000B2E2CAD400000000014600BF25488068EB
:1048400000F002000028F9D02248C16000BF2148D2
:10485000806800F001000028F9D01E48C068C0B28E
:10486000704710B5A023032218211B48FBF7B1FFA6
:1048700010BD00B587B040F20C60FCF759FBFFF7A4
:10488000F0FF1448FCF7DCFE6846FCF702FF00204E
:1048900001904FF482700090002002900320059058
:1048A0004FF4007003901020069000200490694699
:1048B0000848FCF7F6FE4FF4827000904FF4007049
:1048C000039069460348FCF7ECFE0248FCF702FF40
:1048D00007B000BD00300140000801400FB408B52A
:1048E00003A800900099029807F040FB0020009078
:1048F00001B05DF814FB10B503F0EAFC10BD10B573
:1049000004460BE014F8011B2048FEF7E9F800BF4D
:1049100007211E48FEF7CEF90028F9D0207800289C
:10492000F0D110BD70B505460E4600240CE0295D9F
:104930001648FEF7D5F800BF07211448FEF7BAF96C
:104940000028F9D0601CC4B2B442F0DB70BD10B5D1
:10495000044621460D48FEF7C3F800BF07210B4867
:10496000FEF7A8F90028F9D010BD70B504460D4631
:10497000E1B20648FEF7B4F800BF07210348FEF78E
:1049800099F90028F9D0204670BD00000050004081
:1049900010B5002807DA0A07140EFD4A00F00F03CD
:1049A0001B1FD45403E00A07130EFA4A135410BD18
:1049B0004FF08040C06800F0010038B16FF0010096
:1049C0004FF0804108610120F34908707047F348B7
:1049D000006800F0010060B16FF00100EF49091DAF
:1049E00008600120EE490870EE480068401CED495F
:1049F000086070471FB54FF4E060FCF799FA4FF07C
:104A00008040FDF72FF86846FDF7E7F842F6DF60D3
:104A1000ADF800000020ADF80200ADF8040042F24D
:104A2000107002900020ADF80C0069464FF08040F5
:104A3000FDF7DEF801218807FDF720FF4FF08040E9
:104A4000FDF71FF94FF4C060FCF70CF80122114686
:104A50001C20FCF70CF81FBD1FB540F20170FCF7DD
:104A600067FACE480C38FCF7FDFF6846FDF7B5F84D
:104A700042F6DF60ADF800000020ADF80200ADF8AE
:104A8000040042F2107002900020ADF80C0069465C
:104A9000C2480C38FDF7ACF8C0480C38FDF7F1F807
:104AA0000121BE480C38FDF7E9FE4FF4C060FBF76A
:104AB000D9FF002202211D20FBF7D9FF1FBD00B541
:104AC00087B040F21360FCF733FAB748FCF7CAFF2F
:104AD0006846FDF782F87720ADF800000020ADF8B9
:104AE0000200ADF8040043F67F6002900020ADF8AC
:104AF0000C008DF80E006946AB48FDF779F804A864
:104B0000FDF791F90120ADF810000020ADF812007A
:104B1000ADF81400ADF81600ADF81800ADF81A00A5
:104B200004AA0021A048FDF786F94FF47A6200211B
:104B30009D48FDF7AFFA602200219B48FDF77DFA02
:104B4000002211469848FDF7B8FA9748FDF79EF8FD
:104B50009548FDF791F807B000BD70B5002416E048
:104B6000002004EB4401914A02EB8101486004EB10
:104B7000440102EB8101886004EB440102EB8101F6
:104B8000487004EB440102F82100601CC4B2042CFC
:104B9000E6DB874800684FF47A71B0FBF1F5681ED8
:104BA000B0F1807F00D30FE0681E4FF0E021486134
:104BB0000F214FF0FF30FFF7EBFE00204FF0E02118
:104BC00088610720086100BF0021481EFFF7E0FE52
:104BD000FFF710FFFFF740FF70BDF0B5034600225E
:104BE0004FF0E0267569724E3668724FB6FBF7F6E5
:104BF00006FB03F400BF4FF0E026B16910E04FF070
:104C0000E026B06988420BD0884202D20E1A3244A4
:104C100002E02E1A0E4432440146A24200D300E0C4
:104C2000EDE700BFF0BD10B5044604B910BD012C7E
:104C300000D10224012000F02DF95F48046000201B
:104C40005E49087000F026F906E0FEF7EEF85B48D2
:104C50000078012800D100E0F7E700BF00BFE5E7DA
:104C6000416851B14168491E416031B9012141702B
:104C70000178012901D181684160704710B54E4823
:104C8000006840B14C480068401E4B49086010B9AC
:104C900001204A490870002408E004EB4401434A1B
:104CA00002EB8100FFF7DCFF601CC4B2042CF4DBD4
:104CB00043480068401C42490860084600686FF09D
:104CC0000041884202D100203D490860FEF7ACF85F
:104CD0003C480078401CC0B23A4908700A2803DBFF
:104CE00000200870FEF79FF810BD70B504460D4611
:104CF000042C06DB344A35A13AA0FFF7EFFD00BFD4
:104D0000FEE7012000F0C6F804EB4400274901EB60
:104D10008000456004EB440001EB800085600020CA
:104D200004EB4401214A02EB8101487004EB440189
:104D300002F8210000F0AEF870BD70B504460D46D3
:104D4000042C06DB2F4A21A126A0FFF7C7FD00BFD8
:104D5000FEE7012000F09EF804EB4400134901EB4C
:104D60008000456004EB440001EB8000856000207A
:104D700004EB44010D4A02EB81014870012004EB71
:104D8000440102F82100002000F084F870BD00000A
:104D900018ED00E000E400E0180000200C040040E2
:104DA0001900002010030020004C01402C050020B9
:104DB0000000002040420F001C00002020000020C6
:104DC000240000202800002088D500082E2E5C42F8
:104DD00053505C7372635C6273705F74696D65726B
:104DE0002E6300004572726F723A2066696C65200E
:104DF00025732C2066756E6374696F6E2025732889
:104E0000290D0A0097D5000810B50446042C08DBCC
:104E1000224AAFF24801AFF23400FFF75FFD00BF56
:104E2000FEE7012000F036F8002004EB44011C4AA4
:104E300002EB8101486004EB440102EB8101487000
:104E400004EB440102F8210000F024F810BD0146F3
:104E5000042901DB0020704701EB4100104A02EBFE
:104E600080004078012808D1002001EB41020C4B62
:104E700003EB820250700120EDE70020EBE710B554
:104E8000012000F007F807480468002000F002F84D
:104E9000204610BD80F3108870470000AAD5000896
:104EA0002C0500202400002010B54FF4A060FBF773
:104EB000D9FD002202214320FBF7D9FD40F21C70EE
:104EC000FCF736F84FF48020FBF71DFC002211465A
:104ED0004FF48020FBF784FB4FF48020FBF7D9FBD5
:104EE000002201212A20FBF7C2FD10BD10B50020D1
:104EF000FCF751FA04466048844207D14FF4800021
:104F00005E49086003205E49087013E05D488442F2
:104F100006D100205949086005205949087009E068
:104F20005948844206D14FF40000544908600920D2
:104F30005349087051480068FCF7FFF840F20C50E4
:104F4000FBF7F6FF10BD10B5FFF7D0FF01214F486A
:104F500003F0A6FCFFF7A8FF10BD70B504460D4690
:104F60004A48407B03280FD14948007801280BD1DB
:104F70002A462146474806F0AFFC00204449087005
:104F80002946424801F0C3FC70BD10B504463F48B5
:104F9000407B03280CD13E480078012808D13D48C9
:104FA000047000203A4908700121384801F0AFFC34
:104FB00010BD10B504463548407B032811D120466A
:104FC000E11704EB1161090A324A1170E11704EB91
:104FD00011610912A4EB0121517002212B4801F04B
:104FE00096FC10BD10B504462848407B032816D116
:104FF00027480078012812D1FF2026490870200E8A
:105000004870200C8870200AC8700C71EE2048711E
:1050100000201F49087006211C4801F078FC10BDD3
:1050200010B51A48407B032824D11B48007801287A
:1050300020D1164801F05FFC00201749087017487E
:10504000016817A006F06EFF1CA006F06BFF00249D
:1050500006E01F48015D1FA006F064FF601C84B2DB
:105060000E4800688442F4D31BA006F05BFF0B4897
:10507000006810BD0020FCE7006CDC02300100205D
:105080002C01002000A24A04000E27072C0000205B
:1050900090020020380D0020910200209402002090
:1050A00075736220726563656976652064617461F9
:1050B000206C656E20256420200D0A007573622027
:1050C0007265636569766520646174613A00000009
:1050D000780D0020256420000D0A000010B5002284
:1050E00011462520FBF7C3FC40F20E60FBF720FFC2
:1050F0004FF4C060FBF71CFF4023032218214448F3
:10510000FBF767FB8023032204214148FBF761FB87
:1051100001210420FBF7DEFB3E48FDF7D1FB4FF4F5
:10512000E1313C48FDF710FC00213A48FDF750FC06
:1051300000213848FDF754FC00213648FDF758FCA3
:1051400004213448FDF76EFC08213248FDF762FC6B
:105150003048FDF755FC40F207312E48FDF7C6FDFB
:1051600040F205312B48FDF7C1FD10BD10B52A49AD
:105170002848FDF7D5FDF8B105212648FDF79AFD31
:10518000D0B12448FDF7B0FC2449087008460078E7
:10519000FFF7DDFB21480178214802880088401C88
:1051A0001F4B18801F48815418460088B0F5FA6FCD
:1051B00002DB00201946088007211648FDF77AFD1A
:1051C00020B319491348FDF7ABFDF8B1174804881F
:1051D000601C164A10801648015D0E48FDF780FCE1
:1051E00012480088B0F5FA6F02DB00200F490880F2
:1051F0000E4800880F490988884207D100200B49D2
:10520000088040F207310348FDF77DFD10BD000026
:10521000000C014000380140050305003401002066
:10522000F40200208815002007030700FC0200207C
:10523000B80D0020F802002010B54FF4C060FBF755
:1052400077FE0123032210211748FBF7C2FA012140
:105250001548FBF71EFB2023032204211348FBF70C
:10526000B8FA002202211720FBF701FC05210220D9
:10527000FBF775FB022200212020FBF7B1F920206B
:10528000FBF741FA20210948FBF70CFB10BD10B5D4
:1052900001210548FBF7FBFA3220FFF7C4FC01218E
:1052A0000148FBF7F6FA10BD000C01400010014068
:1052B00010B588B0FCF77FF9FD490860FD48FE494C
:1052C000FE4A1268FE4BCDE90432CDE90610F848DB
:1052D0000068FC49FC4AFD4BCDE90032CDE90210E3
:1052E000FB4BFC4AFC49FD4806F02CFEFC4801F053
:1052F00031FBFA4806F035FB04462246F749F848E8
:1053000001F0FDFEF749F64801F05EFF0020F64986
:105310000860F649086014E0F249F34B1B68CA5C68
:10532000F349F24B1B68C818F2A106F00BFEEE48D9
:105330000068401CEC490860EC480068801CEB49A0
:105340000860E94800681028E6DBE948DA49DB4AEA
:105350001268DB4BCDE90432CDE90610D448006871
:10536000D849D94AD94BCDE90032CDE90210D84B02
:10537000D84AE249E24806F0E5FD08B010BD3EB566
:10538000CC48CB490968D04AD04BCDE900210290E6
:10539000D04ADCA1E94806F0D5FDD14801F0DAFA9F
:1053A000E64806F0DEFA04462246E449CC4801F01D
:1053B000A6FEE349CA4801F007FF0020CA49086079
:1053C000CA49086014E0DE49C74B1B68CA5CDD4966
:1053D000C64B1B68C818C7A106F0B4FDC2480068D8
:1053E000401CC1490860C1480068801CBF49086072
:1053F000BD4800681028E6DBD248AD490968B24ACA
:10540000B24BCDE900210290B24ACF49CF4806F015
:1054100099FD3EBD30B58BB001F03EFFB84806F0B7
:10542000A0FA05462A46CAA101A806F08BFD01A8EC
:1054300006F097FACC4908800846028801A9CB48B3
:1054400006F04AFA0020CA49088040F20731C948EC
:10545000FDF74CFC4FF4C870FFF7E5FBA84806F0D9
:1054600080FAC149088008460288A549BF4806F06D
:1054700033FABE48FFF743FA0020BD49088040F2E6
:105480000731BC48FDF732FC4FF4FA70FFF7CBFB55
:10549000B9A1BA4806F053FA04460BB030BD2DE965
:1054A000F84300250027A846DFF8D092B4A148466B
:1054B00006F045FA0746002F57D0B946B3A1484633
:1054C00006F03DFA0746B2A1484606F038FA804693
:1054D000A8F10100791C421AB91CAE4806F0FCF98B
:1054E000AC48FFF70CFA01F0D7FEAA4805F004FF1C
:1054F000A9480068F02191FBF0F085B2A74A4FF46B
:1055000087711E2001F098F800242CE0002626E088
:1055100004EB4410A2490844805D01281DD10020FD
:1055200006F1040C05FB0C5CACF1010C1FFA8CF3CA
:1055300005FB045C0CF1020C1FFA8CF206F1040C62
:1055400005FB0CFC1FFA8CF105FB04FC0CF1030CB1
:1055500000901FFA8CF000F067FA701C86B2202EC3
:10556000D6DB601C84B2202CD0DBBDE8F88330B5DC
:105570008BB001F091FE282101A806F0D5F97348FF
:1055800006F0EFF90446224671A101A806F0DAFC04
:1055900001A806F0E6F9744908800846028801A9C6
:1055A000724806F099F940F207317248FDF79EFB08
:1055B0004FF4FA70FFF737FB01F06EFE634806F018
:1055C000D0F969490880084602886049674806F0B2
:1055D00083F96648FFF793F940F207316548FDF714
:1055E00085FB4FF4FA70FFF71EFB63A1634806F0DA
:1055F000A6F9054601F05DFF0BB030BD70B5A4B053
:10560000002400255D4E802104A806F08DF965A1D7
:10561000304606F094F90446002C47D026465BA19C
:10562000304606F08CF9044659A1304606F087F959
:105630000546681E611C421AA11C04A806F04CF91C
:1056400004A8FFF75CF95BA104A806F091F968BB18
:105650004FF6FF704FF48773F02220210090002056
:1056600000F0E2F90020202154A24FF6FF73CDE9AB
:10567000002102904FF61F029621322000F00AFF0F
:10568000FFF705FEFFF71BFA40F6B830FFF7CBFA3D
:105690004D48FCF7F6FA4FF6FF704FF4A073F02276
:1056A00000210090084600F0BFF98FE093E0000071
:1056B00040010020B8010020B10100204401002079
:1056C000A101002070010020D90100206501002007
:1056D0005B010020480100207CC10108FC0900207A
:1056E0005C0500209C090020380100203C010020BE
:1056F000BC090020253032580000000008C0010815
:10570000B405002061707069643D2573266D63687F
:105710005F69643D2573266E6F6E63655F73747297
:105720003D2573266F75745F74726164655F6E6F7B
:105730003D2564266B65793D257300005A0B0020DA
:10574000AC090020DC09002004C10108A8070020E2
:1057500041542B4854545053414354494F4E3D32C9
:105760002C25642C330D0A00F8020020B80D00200F
:10577000FC020020003801404F4B0000881500203B
:105780003C636F64655F75726C3E0000415B0000B6
:105790005D5D0000B80C0020DC04002038460108E4
:1057A000581D00203C74726164655F737461746598
:1057B0003E0000005355434345535300D6A7B8B6A7
:1057C000B3C9B9A600000000004C014001F071FE11
:1057D00000200249086024B070BD000004030020CE
:1057E0000EB5FDF70AFB002020214EA24FF6FF73F5
:1057F000CDE9002102901F229621322000F04AFEBE
:1058000001F03FFE0A20FFF70EFA4FF6FF704FF44B
:10581000A073F02214210090002000F005F980E030
:1058200002F0D9FB42480078012808D141480068BD
:10583000042804D100203E49087002F0F6FC3E48DE
:1058400000681E21B0FBF1F201FB120070B93A486A
:105850000068B0FBF1F0401C384908600846006859
:10586000B0F57A7F02D94FF47A7008603448007836
:10587000012856D1002032490870FBF79CFE3149BF
:10588000086008460068FDF766FC2E48006840F294
:105890009F7101EB50602C4908600846007800F0C9
:1058A000030038B9084600686421B0FBF1F201FB3F
:1058B000120040B9244800684FF4C871B0FBF1F2FF
:1058C00001FB120008B9214800E021482149086085
:1058D0001C48006820F07E411E480068401E81423E
:1058E0001DD119480068401C174908600846006827
:1058F00040F60201884203D940F29F7012490860C5
:1059000011480078A0F29F70400613490860FBF729
:105910002EFE11480068FBF70DFEFBF728FEFFF78F
:105920007FFB7DE7BCD3D4D8D6D02E2E2E0000002E
:10593000190000200403002010030020440100206F
:1059400004000020FC010020080200200085E20184
:105950008033E101000200200402002070471EA5F0
:1059600000240CE0295D2748FDF7BAF800BF0721A5
:105970002448FDF79FF90028F9D0601CC4B22A2CF6
:10598000F0D300BFFEE700BFFEE700BFFEE700BFA9
:10599000FEE770477047704710B5FFF76FF910BD0D
:1059A00010B5194803F055FD10BD10B516488079A3
:1059B00060B1FAF74CFC15480068FBF7BEFB40F2FB
:1059C0000C50FBF7B5FA104802F020FF4FF480208E
:1059D000FAF799FE10BD00000D0A456E746572203D
:1059E000486172644661756C745F48616E646C6591
:1059F000722C2053797374656D2048616C742E0D80
:105A00000A000000005000402C000020300100205F
:105A100070B505460E46144631462846FEF733F863
:105A20002046FDF7EFFF70BD2DE9F05F04460D46FF
:105A300016461F46301B401C1FFA80FA781B401C7C
:105A40001FFA80FB3B46324629462046FDF7F1FF10
:105A50004FF000080FE04FF0000906E00A98FDF74C
:105A6000D1FF09F101001FFA80F9D145F6DB08F1F9
:105A700001001FFA80F8D845EDDBFE484088401E43
:105A800083B2FC480088401E82B200210846FDF720
:105A9000D0FFBDE8F09F2DE9FF4F85B081468A46D3
:105AA0000020049003900798A0EB09050898A0EB4C
:105AB0000A06CDF80890CDF804A0002D01DD0127DD
:105AC00005E00DB9002702E04FF0FF376D42002ED0
:105AD00002DD4FF0010806E016B94FF0000802E0C1
